:020000040800F2
:100000007808002049020008491E00084B1E00081D
:100010004F1E0008531E0008571E00080000000075
:100020000000000000000000000000005D1E00084D
:100030005B1E0008000000005F1E0008611E000833
:100040008F1E0008911E0008931E0008951E0008D0
:10005000971E0008991E00089B1E00089D1E0008A0
:100060009F1E0008A11E0008A31E0008A51E000870
:10007000A71E0008A91E0008AB1E0008AD1E000840
:10008000AF1E0008B11E0008B31E0008B51E000810
:10009000B71E0008B91E0008BB1E0008BD1E0008E0
:1000A000BF1E0008C11E0008C31E0008C51E0008B0
:1000B000C71E0008191F00081B1F00081D1F00088D
:1000C0001F1F0008211F0008231F0008251F00080C
:1000D000271F0008291F00082B1F00082D1F0008DC
:1000E0002F1F0008311F0008331F0008351F0008AC
:1000F000371F0008391F00083B1F00083D1F00087C
:100100003F1F0008411F0008431F0008451F00084B
:10011000471F0008491F00084B1F00084D1F00081B
:100120004F1F0008511F0008531F0008551F0008EB
:1001300000F002F800F03CF80AA090E8000C8244BD
:100140008344AAF10107DA4501D100F031F8AFF29A
:10015000090EBAE80F0013F0010F18BFFB1A43F0A5
:10016000010318476C1F00008C1F0000103A24BFC9
:1001700078C878C1FAD8520724BF30C830C144BF0C
:1001800004680C607047000000230024002500264E
:10019000103A28BF78C1FBD8520728BF30C148BFEA
:1001A0000B6070471FB5AFF300801FBD10B510BDC9
:1001B00001F049FF1146FFF7F5FF01F025FE01F0C0
:1001C00067FFFFF7F3FF01F06DFF000030BF7047DE
:1001D00020BF704740BF7047BFF36F8F7047BFF3BA
:1001E0004F8F7047BFF35F8F704701DF7047EFF3AA
:1001F0001480704780F31488BFF36F8F7047EFF35C
:100200000980704780F309887047EFF308807047D2
:1002100080F30888704762B6704772B67047EFF394
:100220001080704771B6704761B67047EFF3138066
:10023000704780F311887047EFF31280704740BA1F
:10024000704700BA7047000003480047034804495C
:10025000044A054B70470000310100087800002077
:10026000780800207804002078040020FC49096800
:1002700001F03801FA4A1160114609680143116022
:100280007047F749096821F00801F54A11601146E5
:100290000968014311607047F149096821F01001B4
:1002A000EF4A116011460968014311607047ED483B
:1002B000EB494860EC4848607047E948006940F005
:1002C0008000E749086170470420E549C96801F0EA
:1002D0000101012901D101200EE0E149C96811F0B5
:1002E000040F01D0022007E0DD49C96811F0100FAA
:1002F00001D0032000E0042070470020FF2000E030
:10030000401E0028FCD1704770B504460425FFF755
:10031000DBFF054605E0FFF7F0FFFFF7D5FF0546D9
:10032000641E012D01D1002CF5D104B90525284604
:1003300070BD70B50446042540F6FF70FFF7E4FF7A
:100340000546042D19D1C648006940F00200C44991
:10035000086108464461006940F04000086140F6C9
:10036000FF70FFF7D1FF0546012D06D0BC4800699C
:1003700041F6FD710840BA490861284670BD10B5C4
:10038000042440F6FF70FFF7BFFF0446042C18D189
:10039000B348006940F00400B149086108460069AB
:1003A00040F04000086140F6FF70FFF7ADFF0446E3
:1003B000012C06D0AA48006941F6FB710840A84903
:1003C0000861204610BD10B5042440F6FF70FFF709
:1003D0009BFF0446042C3BD1A248A1498860A24857
:1003E00088600846006940F02000086108460069FE
:1003F00040F04000086140F6FF70FFF785FF0446BB
:10040000042C1CD19648006941F6DF7108409449DC
:1004100008610846006940F010000861A520934972
:1004200008800F20FFF770FF0446012C10D08C4885
:10043000006941F6EF7108408949086108E0012C24
:1004400006D08748006941F6EF7108408449086189
:10045000204610BD70B504460D4604260F20FFF758
:1004600053FF0646042E25D17D48006940F0010067
:100470007B49086125800F20FFF746FF0646042EC2
:100480000FD1280C60800F20FFF73EFF0646012E9B
:1004900010D07348006941F6FE7108407049086148
:1004A00008E0012E06D06E48006941F6FE71084052
:1004B0006B490861304670BD70B504460D46042690
:1004C0000F20FFF721FF0646042E13D16448006970
:1004D00040F001006249086125800F20FFF714FFFA
:1004E0000646012E06D05E48006941F6FE710840BE
:1004F0005B490861304670BD70B504460D46042660
:100500000F20FFF701FF0646042E17D15548544926
:100510008860554888600846006940F0100008610E
:1005200025800F20FFF7F0FE0646012E06D04C482E
:10053000006941F6EF71084049490861304670BDD5
:100540002DE9F04704464FF6FF752E462F46A84684
:100550004FF00409E443E5B2C4F30726C4F30747A8
:100560004FEA14680F20FFF7CFFE8146B9F1040F60
:1005700041D13C483A4988603B4888600846006958
:1005800040F010000861FF2D06D038480830058083
:100590000F20FFF7B9FE8146B9F1040F08D1FF2EF5
:1005A00006D032480A3006800F20FFF7ADFE8146A4
:1005B000B9F1040F08D1FF2F06D02C480C3007806A
:1005C0000F20FFF7A1FE8146B9F1040F09D1B8F160
:1005D000FF0F06D02648A0F80E880F20FFF794FEE4
:1005E0008146B9F1010F06D01D48006941F6EF714F
:1005F00008401B4908614846BDE8F08770B50446CD
:10060000042540F6FF70FFF77FFE0546042D4CD110
:10061000144813498860144888600846006940F00F
:10062000200008610846006940F04000086140F67B
:10063000FF70FFF769FE0546042D2DD108480069BB
:1006400041F6DF710840064908610846006940F03C
:100650001000086174B10020044908800DE000001A
:100660000020024023016745AB89EFCD00F8FF1F52
:1006700000F0FF1FA5204549088040F6FF70FFF7F6
:1006800043FE0546012D10D04148006941F6EF7147
:1006900008403F49086108E0012D06D03C48006948
:1006A00041F6DF7108403A490861284670BD2DE9DE
:1006B000F04104460D461646042736483449886002
:1006C000354888600F20FFF71FFE0746042F1AD118
:1006D0002F48006940F010002D49086144EA0500E8
:1006E000304340F0F8002949891C08800F20FFF7AB
:1006F0000BFE0746012F06D02548006941F6EF7131
:100700000840234908613846BDE8F0812048C069A7
:10071000800870471E48006A704700201C49C9695C
:1007200011F0020F01D0012000E0002070470020EE
:100730001749096811F0200F01D0012000E00020C6
:10074000704729B1124A12690243114B1A6104E041
:100750000F4A126982430E4B1A617047014600200E
:10076000012908D10A4AD26912F0010F01D00120F3
:1007700008E0002006E0064AD2680A4201D00120C3
:1007800000E0002070470249C860704700F8FF1F72
:100790000020024023016745AB89EFCD10B5044628
:1007A000C149601A8C422FD009DCC048201810D0F3
:1007B000B0F5806F16D0B0F5006F4AD11BE0B0F5F0
:1007C000806F2AD0B0F5006F30D0B0F5406F40D1C7
:1007D00035E00121042000F0EBFC0021042000F0B2
:1007E000E7FC37E00121082000F0E2FC00210820AE
:1007F00000F0DEFC2EE00121102000F0D9FC0021E9
:10080000102000F0D5FC25E00121202000F0D0FCD4
:100810000021202000F0CCFC1CE00121402000F051
:10082000C7FC0021402000F0C3FC13E00121802020
:1008300000F0BEFC0021802000F0BAFC0AE001219B
:10084000080200F0B5FC00214FF4807000F0B0FC0D
:1008500000E000BF00BF10BD10B50121084600F048
:10086000A7FC0021012000F0A3FC10BDF0B5002280
:100870000023002400250026002791F803C00CF077
:100880000F0291F803C01CF0100F03D091F802C0C2
:100890004CEA0202B1F800C01CF0FF0F31D006682C
:1008A00000242BE04FF0010C0CFA04F5B1F800C065
:1008B0000CEA0503AB4220D1A5004FF00F0C0CFA57
:1008C00005F7BE4302FA05FC4CEA060691F803C0A0
:1008D000BCF1280F06D14FF0010C0CFA04FCC0F853
:1008E00014C00AE091F803C0BCF1480F05D14FF0E5
:1008F000010C0CFA04FCC0F810C0641C082CD1D305
:100900000660B1F800C0BCF1FF0F34DD466800247A
:100910002EE004F1080C4FF0010E0EFA0CF5B1F8C0
:1009200000C00CEA0503AB4221D1A5004FF00F0C2B
:100930000CFA05F7BE4302FA05FC4CEA060691F8EC
:1009400003C0BCF1280F05D104F1080C0EFA0CFE0F
:10095000C0F814E091F803C0BCF1480F07D104F1CE
:10096000080C4FF0010E0EFA0CFEC0F810E0641CEB
:10097000082CCED34660F0BD4FF6FF7101800221F6
:1009800081700421C17070470246002093680B42B9
:1009900001D0012000E0002070470146886880B245
:1009A000704702460020D3680B4201D0012000E0CE
:1009B000002070470146C86880B2704701617047E7
:1009C000416170470AB1016100E041617047C16057
:1009D00070474FF480320A4382618161826182698B
:1009E000826970470022324B1A684FF680731A40B2
:1009F00042EA00120A432E4B1A6070472D49C86123
:100A00007047F0B50022002300250024284E7568A9
:100A1000C0F3034482B200F44016B6F5401F08D17B
:100A200025F07065224E766826F07066204F7E6055
:100A300012E000F48016B6F5801F06D1032606FAF0
:100A400004F39D4345F0706506E0460D360102FA59
:100A500006F6B54345F0706521B1460D360102FA40
:100A600006F63543124E7560F0BD30B500228B0797
:100A70001C0F0F2303FA04F20D4B08338C1053F8AC
:100A8000244094438D1043F825408C1053F82430B3
:100A90008C07240F00FA04F42343054C08348D100E
:100AA00044F8253030BD00000014014000F8FEBFBE
:100AB00000000140000020420020411EF24A116067
:100AC0000A09F1498039C1F88420411E4FF0E02223
:100AD000C2F880120A09ED490A6000BF04E0002252
:100AE000EB4941F82020401C0F28F8D37047002024
:100AF0004FF02061E74A116000214FF0E022C2F878
:100B0000081DE549E34A083211600021121D1160F9
:100B1000121D116000BF05E00022DE49143141F8CA
:100B20002020401C0328F7D30021DA4A203211602C
:100B3000491E4FF0E022C2F8281DD64A2832116023
:100B40004FF0E022C2F8301D7047D3490143D14A2B
:100B5000083211607047F0B5002100220023002404
:100B60000F25C678002E36D0CA4E0836366806F4F1
:100B7000E066C6F5E066310AC1F10404CD4046786E
:100B800006FA04F186782E40314309010678B6074B
:100B9000F60EB140BE4E0778BF1056F827200678F3
:100BA000B607F70EFF2606FA07F39A4319400A43E1
:100BB000B74E0778BF1046F82720067806F01F07C3
:100BC0000126BE4007787F114FF0E02C0CEB870721
:100BD000C7F800610BE0067806F01F060127B74052
:100BE000A94E90F800C04FEA6C1C46F82C70F0BD7E
:100BF0000021017041708170C170704710B5FFF71E
:100C00000CFB10BD10B5FFF706FB10BD10B5FFF7CC
:100C100009FB10BD10B5FFF707FB10BD10B504466A
:100C20002001FFF706FB10BD10B5FFF705FB10BD57
:100C300098480068C0F30930704710B5014600209D
:100C4000002201F01F04012303FA04F28E4B8033CB
:100C50004C1153F824301340934201D1012000E09D
:100C6000002010BD8D490860704700F01F0101226F
:100C70008A408649091F431141F82320704785485F
:100C80000068C0F30900704710B50146002000223B
:100C900001F01F04012303FA04F27C4B7C334C1156
:100CA00053F824301340934201D1012000E000208A
:100CB00010BD7848001F00687047794A0A40024317
:100CC000744B1B1D1A6070477348001D7149083131
:100CD000086070477048401C6E49083108607047D2
:100CE00041B16C4A0C32126802434FF0E023C3F862
:100CF000102D07E0674A0C32126882434FF0E02360
:100D0000C3F8102D704710B5002200F01F04012316
:100D100003FA04F241B15F4B20331B6813434FF0D9
:100D2000E024C4F8243D07E05A4B20331B6893436A
:100D30004FF0E024C4F8243D10BDF0B50023FF249B
:100D400000250026534F08373F6807F4E067C7F5D2
:100D5000E0673E0AC6F10403F44001FA03F602EA32
:100D600004073E43360100F0C0039B09C0F3012491
:100D7000E700BE404FEAC40CFF2707FA0CF5454FC9
:100D8000143757F823C02CEA050C47F823C057F84E
:100D900023C04CEA060C47F823C0F0BD10B501464D
:100DA0000020002200238B0A03F00F03012404FA21
:100DB00003F3384C2034246804EA03029A4201D138
:100DC000012000E0002010BD002100F01F01314A89
:100DD000136801228A4013434FF0E022C2F8043D19
:100DE000704710B5002100F01F012A4A13684C1EFD
:100DF0000122A24013434FF0E022C2F8043D10BD8F
:100E000010B50146002000230022C1F383320124E3
:100E100004FA02F21F4C2034246804EA02039342CD
:100E200001D1012000E0002010BD30B501460020B6
:100E300000220023C1F38142C1F301531AB9154CBA
:100E40002834206811E0012A0CD1124C2434246883
:100E5000DD0024FA05F0022B02D000F00F0004E0C0
:100E6000C0B202E00B4C2C34206830BD014600209B
:100E70000022C1F380521AB9064B3033186802E0E1
:100E8000044B34331868704780E100E084E200E0EE
:100E900000E400E004ED00E00000FA0500EF00E0EF
:100EA00080FFFF1FDE48006840F00100DC49086059
:100EB00008464068DB490840D94948600846006850
:100EC000D9490840D64908600846006820F48020C7
:100ED00008600846406820F4FE00486000208860F2
:100EE0007047CF49096821F48031CD4A116011461D
:100EF000096821F480211160B0F5803F03D0B0F57E
:100F0000802F0ED106E0C649096841F48031C44AF9
:100F1000116007E0C249096841F4A021C04A11608C
:100F200000E000BF00BF704710B50146002200235B
:100F300000204A11012A02D1B94C236806E0022A96
:100F400002D1B74C236A01E0B54C636A01F01F027D
:100F5000012494401C4201D0012000E0002010BD7B
:100F600010B5002400BF3120FFF7DEFFAF49087045
:100F7000081F0068401C091F0860081D007828B978
:100F800008460068A0F58071FF39ECD13120FFF7E9
:100F9000CBFF08B1012400E00024204610BD002151
:100FA0009F4A116821F0F80141EAC00111607047C1
:100FB0009F49086070470022994B5A6822F47C12BE
:100FC00040EA01031A43964B5A60704798490866F5
:100FD00070470021924A516821F00301014351609A
:100FE00070478F48406800F00C00704700218C4A21
:100FF000516821F0F0010143516070470021884A97
:10100000516821F4E0610143516070470021844A36
:10101000516821F4605141EAC0015160704729B123
:101020007F4A527A02437E4B5A7206E07C4A527AD9
:10103000C343DBB21A407A4B5A7270477C49D831AD
:10104000086070470021764A516821F4404101430D
:10105000516070470021724A20321170704A82F844
:101060002010012802D004280AD104E001216C4A92
:101070002032117005E00521694A2032117000E02C
:1010800000BF00BF70476B49086070476449096A38
:101090000143634A116270476649443908607047EA
:1010A00030B500210022002300245D4D6D6805F05D
:1010B0000C0121B1042905D0082923D105E05E4D9A
:1010C000056022E05C4D05601FE0554D6D6805F43C
:1010D0007012022505EB9242514D6D6805F4803384
:1010E0001BB9564D554305600BE04D4D6D6815F429
:1010F000003F03D0514D5543056002E04E4D55432E
:10110000056002E04C4D056000BF00BF444D6D68B6
:1011100005F0F00109094A4D6C5C0568E540456041
:101120003F4D6D6805F4E061090A454D6C5C45680A
:10113000E54085603A4D6D6805F46051C90A404D3F
:101140006C5C4568E540C560354D6D6805F440410F
:10115000890B3B4D10356C5CC568B5FBF4F505613A
:1011600030BD29B12E4A526902432D4B5A6104E029
:101170002B4A526982432A4B5A61704729B1284A47
:1011800092690243264B9A6104E0254A92698243A0
:10119000234B9A61704729B1214AD2690243204BFF
:1011A000DA6104E01E4AD26982431D4BDA6170475E
:1011B00029B11B4AD2680243194BDA6004E0184A8D
:1011C000D2688243164BDA60704729B1144A12691B
:1011D0000243134B1A6104E0114A12698243104B17
:1011E0001A61704713494039086070471049C86454
:1011F00070470B49C87170470948406A40F08070D9
:1012000007494862704701460020054A92680A4231
:1012100001D0012000E0002070470149887270472A
:10122000001002400000FFF8FFFFF6FE040000205F
:10123000000042428004424200127A0000093D0050
:10124000BA200008042808D14FF0E021096941F0D4
:1012500004014FF0E022116107E04FF0E02109693D
:1012600021F004014FF0E022116170474FF0E021BE
:1012700048617047012808D14FF0E021096941F029
:1012800001014FF0E02211610EE0811C08D14FF006
:10129000E021096921F001014FF0E022116103E032
:1012A00000214FF0E0229161704740B14FF0E02102
:1012B000096941F002014FF0E022116107E04FF0AF
:1012C000E021096921F002014FF0E022116170472D
:1012D0004FF0E0208069704710B5014600220023DE
:1012E0000020CB10022B03D14FF0E024226902E052
:1012F0004FF0E024E26901248C40144201D0012027
:1013000000E0002010BD000010B50446F849601A46
:101310008C4245D00CDCB4F1804F1DD0F54820182C
:1013200023D0B0F5806F29D0B0F5006F54D12EE0F6
:10133000B0F5806F3DD0B0F58E3F03D0B0F5923F51
:101340004AD13FE00121C802FFF732FF00214FF4EC
:101350000060FFF72DFF40E001210846FFF735FF51
:1013600000210120FFF731FF37E001210220FFF7C4
:101370002CFF00210220FFF728FF2EE0012104208E
:10138000FFF723FF00210420FFF71FFF25E00121C5
:101390000820FFF71AFF00210820FFF716FF1CE0C6
:1013A00001211020FFF711FF00211020FFF70DFF92
:1013B00013E001212020FFF708FF00212020FFF784
:1013C00004FF0AE001214803FFF7F2FE00214FF479
:1013D0000050FFF7EDFE00E000BF00BF10BD028827
:1013E00002F08F020280CA884B881A4303881A438E
:1013F00002808A8882850A88028501228282BE4A0A
:10140000904202D0BD4A904201D10A7A02867047CA
:1014100070B5002200230024058C4FF6FE7635407F
:101420000584038C8488028B4FF68F752A400D88C3
:101430002A43751E2B400D892B434D882B43CD88A5
:101440008586AD4DA84202D0AC4DA84213D14FF6CF
:10145000F7752B404D892B434FF6FB752B408D883C
:101460002B4347F6FF652C4047F6FF552C408D89EE
:101470002C43CD892C4384800283038470BD70B5D6
:10148000002200230024058C4FF6EF7635400584BA
:10149000038C8488028B48F6FF752A400D882D0640
:1014A00042EA15424FF6DF752B400D892D0543EAC0
:1014B00015434D882D0543EA1543CD8805878E4D8C
:1014C000A84202D08D4DA8421BD14FF67F752B400C
:1014D0004D892D0543EA15434FF6BF752B408D8886
:1014E0002D0543EA154347F6FF352C4047F2FF75BB
:1014F0002C408D89AD0444EA1544CD89AD0444EAFD
:10150000154484800283038470BD70B500220023DB
:101510000024058C4FF6FF6635400584038C8488D3
:10152000828B4FF68F752A400D882A434FF6FF5560
:101530002B400D892D0643EA15434D882D0643EABD
:101540001543CD8885876C4DA84202D06B4DA842CB
:101550001BD14FF2FF752B404D892D0643EA1543F1
:101560004FF6FF352B408D882D0643EA154346F68E
:10157000FF752C4045F6FF752C408D892D0544EAFA
:101580001544CD892D0544EA154484808283038463
:1015900070BD70B5002200230024058C4EF6FF7646
:1015A00035400584038C8488828B48F6FF752A4079
:1015B0000D882D0642EA15424DF6FF752B400D8928
:1015C0002D0743EA15434D882D0743EA1543CD887F
:1015D000A0F84050484DA84202D0484DA84205D13D
:1015E000C4F30D048D89AD0544EA154484808283DB
:1015F000038470BD828B4FF2FF331A408283828B4B
:101600000B0642EA134282837047F0B5002400259E
:101610000026078C4EF6FF7C07EA0C070784848BB4
:10162000058C0F073E0C40F6FF473C4017063F0C69
:101630004FEA037C47EA1C473C434DF6FF773D40A9
:1016400046F480573D4384830584F0BD828B4FF67A
:10165000F3731A408283828B0A4382837047F0B50A
:10166000002400250026078C4FF6FF6C07EA0C07C4
:101670000784848B058C0F063E0C4FF60C773C409C
:101680001F0542EA17473C434FF6FF573D4046F4DB
:1016900080773D4384830584F0BD028B4FF2FF3396
:1016A0001A400283028B0B0642EA13420283704700
:1016B000F0B5002400250026078C4FF6EF7C07EAE2
:1016C0000C070784048B058C0F053E0C40F6FF4782
:1016D0003C401F0744EA1744170644EA17444FF6F4
:1016E000DF773D4046F010073D4304830584F0BD9D
:1016F0000010004000FCFFBF002C014000340140FE
:10170000028B4FF6F3731A400283028B0A43028363
:101710007047F0B500240025068C4FF6FE773E405A
:101720000684048B058C4FF60C7634401E0542EA85
:10173000164634437E1E354041F00106354304838E
:101740000584F0BD70B504460D46288850B92B8934
:10175000AA8869882046FFF7DCFFE9882046FFF762
:10176000CFFF25E0288804280AD12B89AA88698818
:101770002046FFF79DFFE9882046FFF78EFF17E020
:10178000288808280AD12B89AA8869882046FFF76B
:1017900066FFE9882046FFF759FF09E02B89AA88F0
:1017A00069882046FFF731FFE9882046FFF722FFCE
:1017B00070BD2DE9F04104460D46002601276888DA
:1017C00008B9022600E00026A888012801D10227D6
:1017D00000E001272888A0B92B89AA8869882046BB
:1017E000FFF797FFE9882046FFF78AFF2B893A46E3
:1017F00031462046FFF75CFFE9882046FFF74DFFA2
:1018000013E02B89AA8869882046FFF751FFE988F1
:101810002046FFF742FF2B893A4631462046FFF724
:1018200078FFE9882046FFF76BFFBDE8F0810A8862
:101830004B881A438B881A43CB881A430B891A4367
:101840004B891A438B891A43A0F8442070474FF6FE
:10185000FF71818000210180C18041800172704749
:101860000021018041808180C1800181418181818D
:10187000C1817047002101804180012181800021C8
:10188000C180018170470021018041808180C18039
:10189000018141818181704721B1028842F00102BA
:1018A000028004E0028840F2FE331A400280704752
:1018B00031B1B0F8442042F40042A0F8442005E0E1
:1018C000B0F84420C2F30E02A0F84420704710B5CF
:1018D0001AB183890B43838104E08389CC43A4B28A
:1018E0002340838110BD8182704741EA0203A0F842
:1018F0004830704710B51AB183890B43838104E0E7
:101900008389CC43A4B22340838110BD01894FF663
:10191000F872114001817047002202894FF68F73DF
:101920001A400A430281704730B504460D462946E5
:101930002046FFF7F1FF208940F00700208130BDED
:101940002DE9F04104460D4616461F46602D06D18E
:101950003B46012231462046FFF7AAFE05E03B4602
:10196000012231462046FFF7D4FE29462046FFF7E4
:10197000D3FF208940F007002081BDE8F08170B5D9
:1019800000240489E4B241EA02051E0645EA164530
:101990002C43048170BD2DE9F04104460D461646E6
:1019A000984600274346324629462046FFF7E7FF80
:1019B00027894FF6F870074047F007074FF68F70FA
:1019C000074047F070072781BDE8F081F0B5044675
:1019D0000D4616461F463B46324629462046FFF72F
:1019E000CEFF208940F480402081F0BD01858282B5
:1019F00070470022028840F28F331A400A43028067
:101A00007047F0B50024002500260489058B068C5C
:101A10004FF6F8773C400C434FF6FC473D4040F210
:101A200001173D434FF6DD773E401F0542EA174759
:101A30003E43048105830684F0BD0022028B4FF6ED
:101A40008F731A400A43028370470022028B48F6C4
:101A5000FF731A400B0642EA1342028370470022CA
:101A6000828B4FF68F731A400A438283704700229D
:101A7000828B48F6FF731A400B0642EA13428283B8
:101A8000704721B1028842F08002028004E002889F
:101A900040F27F331A400280704721B1828842F0C1
:101AA0000402828004E082884FF6FB731A40828031
:101AB000704721B1828842F00802828004E0828867
:101AC0004FF6F7731A408280704721B1828842F046
:101AD0000102828004E082884FF6FE731A40828001
:101AE00070470022028B4FF6F7731A400A430283B5
:101AF00070470022028B4FF2FF731A400B0642EA36
:101B00001342028370470022828B4FF6F7731A400C
:101B10000A43828370470022828B4FF2FF731A4080
:101B20000B0642EA1342828370470022028B4FF673
:101B3000FB731A400A43028370470022028B4FF660
:101B4000FF331A400B0642EA134202837047002219
:101B5000828B4FF6FB731A400A4382837047002240
:101B6000828B4FF6FF331A400B0642EA1342828300
:101B700070470022028B4FF67F731A400A4302839C
:101B800070470022028BC2F30E020B0642EA134298
:101B9000028370470022828B4FF67F731A400A43FC
:101BA000828370470022828BC2F30E020B0642EA48
:101BB0001342828370470022028C4FF6FD731A4055
:101BC0000A43028470470022028C4FF6F7731A40D2
:101BD0000A43028470470022028C4FF6DF731A40DA
:101BE0000B0542EA1342028470470022028C4FF632
:101BF0007F731A400B0542EA1342028470470022A9
:101C0000028C4FF6FF531A400B0642EA134202843D
:101C100070470022028C4FF2FF731A400B0642EA13
:101C20001342028470470022028C4DF6FF731A4063
:101C30000B0742EA13420284704710B5038C01245B
:101C40008C40E443A4B223400384038C02FA01F4E1
:101C5000A4B22343038410BD10B5038C04248C402C
:101C6000E443A4B223400384038C02FA01F4A4B237
:101C70002343038410BD30B5048C01238B40DB4328
:101C80009BB21C40048409B1082912D100F1180349
:101C900003EB61031C684FF68F731C4000F11803BF
:101CA00003EB61031C6000F1180303EB61031A608E
:101CB00019E00B1F9CB200F1180303EB64031C68CE
:101CC00048F6FF731C400B1F9DB200F1180303EB95
:101CD00065031C6013061C0C0B1F9DB200F118035A
:101CE00003EB65031C6030BD21B1028842F00202A3
:101CF000028004E0028840F2FD331A4002807047FF
:101D000021B1028842F00402028004E0028840F21D
:101D1000FB331A400280704721B1828842F0800272
:101D2000828004E082884FF67F731A408280704779
:101D3000028840F2F7331A40028002880A43028088
:101D4000704782884FF68F731A40828082880A43D8
:101D50008280704702894FF6F8731A400281028927
:101D60000A430281704702894FF67F731A4002814D
:101D700002890A43028170478184704781857047D8
:101D8000818670470187704781877047A0F84010AF
:101D900070470288D2B2028002880A4302807047EC
:101DA0000146888E70470146088F70470146888F2C
:101DB00070470146B1F8400070470146888C704773
:101DC0000146088D704702460020138A0B4201D05D
:101DD000012000E000207047CA430282704730B5FE
:101DE0000246002000230024158A05EA0103958994
:101DF00005EA010413B10CB1012000E0002030BD60
:101E0000CA4302827047000010B500BF00BF00F057
:101E1000ABF800F0DBF800F0E1F800F0FBF800F0C0
:101E200004F90BE00648006820B920210548FEF7B8
:101E3000C5FD03E020210348FEF7C2FDF2E70000E4
:101E400008000020000C0140704700BFFEE700BF03
:101E5000FEE700BFFEE700BFFEE770477047704730
:101E60003D480068401E3C4908600846006868B963
:101E70003A48006818B901203849086002E000209B
:101E8000364908604FF47A703349086070477047EC
:101E9000704770477047704770477047704770478A
:101EA000704770477047704770477047704770477A
:101EB000704770477047704770477047704770476A
:101EC00070477047704710B502214807FFF787FF3A
:101ED000012820D102218007FFF792FF102120481E
:101EE000FEF75FFDC0F10100C4B2224610211C487C
:101EF000FEF768FD4FF08040FFF752FF1949088058
:101F00000846008800F5FA700880084601884FF0FE
:101F10008040FFF735FF10BD70477047704770472E
:101F200070477047704770477047704770477047F9
:101F300070477047704770477047704770477047E9
:101F400070477047704770477047704770477047D9
:101F500070477047704700000C0000200800002008
:101F6000001001401000002010B5FEF79BFF4FF459
:101F70008030FEF7B6FFFEF7F3FF0446012C24D1B4
:101F80001020FEF789F90220FEF770F90020FFF714
:101F90002DF80020FFF73AF8A002FFF72FF84FF4D2
:101FA000E0112004FFF707F80120FFF70FF800BF4A
:101FB0003920FEF7B9FF0028FAD00220FFF709F810
:101FC00000BFFFF70EF80828FBD110BD10B50021A7
:101FD0004FF00060FEF771FE10BD000008B5012152
:101FE0007C20FFF7CBF84FF6FF70ADF80000102013
:101FF0008DF8030003208DF8020069460348FEF7C0
:1020000035FC69460248FEF731FC08BD000C014072
:102010000018014010B50420FFF714F90748FFF736
:1020200025F90120FFF741F910BD10B50020FFF799
:1020300021F90120FFF71EF910BD00004019010031
:10204000704770477047754600F028F8AE460500A7
:102050006946534620F00700854618B020B5FEF7C4
:10206000F5F8BDE820404FF000064FF000074FF0B4
:1020700000084FF0000B21F00701AC46ACE8C009A6
:10208000ACE8C009ACE8C009ACE8C0098D467047AF
:102090000446AFF300802046FEF793F800487047EF
:1020A0001400002003494FF01800ABBE7047000039
:1020B0000900000026000200704700000000010235
:1020C00003040102030406070809020406080000CD
:1020D000F020000800000020140000006C0100083F
:1020E0000421000814000020640800008801000892
:1020F000000000000000000000000000E8030000F5
:0421000000000000DB
:0400000508000131BD
:00000001FF
